{
  "contractName": "NFTCollection",
  "abi": [
    {
      "inputs": [],
      "stateMutability": "nonpayable",
      "type": "constructor"
    },
    {
      "anonymous": false,
      "inputs": [
        {
          "indexed": true,
          "internalType": "address",
          "name": "owner",
          "type": "address"
        },
        {
          "indexed": true,
          "internalType": "address",
          "name": "approved",
          "type": "address"
        },
        {
          "indexed": true,
          "internalType": "uint256",
          "name": "tokenId",
          "type": "uint256"
        }
      ],
      "name": "Approval",
      "type": "event"
    },
    {
      "anonymous": false,
      "inputs": [
        {
          "indexed": true,
          "internalType": "address",
          "name": "owner",
          "type": "address"
        },
        {
          "indexed": true,
          "internalType": "address",
          "name": "operator",
          "type": "address"
        },
        {
          "indexed": false,
          "internalType": "bool",
          "name": "approved",
          "type": "bool"
        }
      ],
      "name": "ApprovalForAll",
      "type": "event"
    },
    {
      "anonymous": false,
      "inputs": [
        {
          "indexed": true,
          "internalType": "address",
          "name": "from",
          "type": "address"
        },
        {
          "indexed": true,
          "internalType": "address",
          "name": "to",
          "type": "address"
        },
        {
          "indexed": true,
          "internalType": "uint256",
          "name": "tokenId",
          "type": "uint256"
        }
      ],
      "name": "Transfer",
      "type": "event"
    },
    {
      "inputs": [
        {
          "internalType": "address",
          "name": "to",
          "type": "address"
        },
        {
          "internalType": "uint256",
          "name": "tokenId",
          "type": "uint256"
        }
      ],
      "name": "approve",
      "outputs": [],
      "stateMutability": "nonpayable",
      "type": "function"
    },
    {
      "inputs": [
        {
          "internalType": "address",
          "name": "owner",
          "type": "address"
        }
      ],
      "name": "balanceOf",
      "outputs": [
        {
          "internalType": "uint256",
          "name": "",
          "type": "uint256"
        }
      ],
      "stateMutability": "view",
      "type": "function",
      "constant": true
    },
    {
      "inputs": [
        {
          "internalType": "uint256",
          "name": "tokenId",
          "type": "uint256"
        }
      ],
      "name": "getApproved",
      "outputs": [
        {
          "internalType": "address",
          "name": "",
          "type": "address"
        }
      ],
      "stateMutability": "view",
      "type": "function",
      "constant": true
    },
    {
      "inputs": [
        {
          "internalType": "address",
          "name": "owner",
          "type": "address"
        },
        {
          "internalType": "address",
          "name": "operator",
          "type": "address"
        }
      ],
      "name": "isApprovedForAll",
      "outputs": [
        {
          "internalType": "bool",
          "name": "",
          "type": "bool"
        }
      ],
      "stateMutability": "view",
      "type": "function",
      "constant": true
    },
    {
      "inputs": [],
      "name": "name",
      "outputs": [
        {
          "internalType": "string",
          "name": "",
          "type": "string"
        }
      ],
      "stateMutability": "view",
      "type": "function",
      "constant": true
    },
    {
      "inputs": [
        {
          "internalType": "uint256",
          "name": "tokenId",
          "type": "uint256"
        }
      ],
      "name": "ownerOf",
      "outputs": [
        {
          "internalType": "address",
          "name": "",
          "type": "address"
        }
      ],
      "stateMutability": "view",
      "type": "function",
      "constant": true
    },
    {
      "inputs": [
        {
          "internalType": "address",
          "name": "from",
          "type": "address"
        },
        {
          "internalType": "address",
          "name": "to",
          "type": "address"
        },
        {
          "internalType": "uint256",
          "name": "tokenId",
          "type": "uint256"
        }
      ],
      "name": "safeTransferFrom",
      "outputs": [],
      "stateMutability": "nonpayable",
      "type": "function"
    },
    {
      "inputs": [
        {
          "internalType": "address",
          "name": "from",
          "type": "address"
        },
        {
          "internalType": "address",
          "name": "to",
          "type": "address"
        },
        {
          "internalType": "uint256",
          "name": "tokenId",
          "type": "uint256"
        },
        {
          "internalType": "bytes",
          "name": "_data",
          "type": "bytes"
        }
      ],
      "name": "safeTransferFrom",
      "outputs": [],
      "stateMutability": "nonpayable",
      "type": "function"
    },
    {
      "inputs": [
        {
          "internalType": "address",
          "name": "operator",
          "type": "address"
        },
        {
          "internalType": "bool",
          "name": "approved",
          "type": "bool"
        }
      ],
      "name": "setApprovalForAll",
      "outputs": [],
      "stateMutability": "nonpayable",
      "type": "function"
    },
    {
      "inputs": [],
      "name": "symbol",
      "outputs": [
        {
          "internalType": "string",
          "name": "",
          "type": "string"
        }
      ],
      "stateMutability": "view",
      "type": "function",
      "constant": true
    },
    {
      "inputs": [
        {
          "internalType": "uint256",
          "name": "index",
          "type": "uint256"
        }
      ],
      "name": "tokenByIndex",
      "outputs": [
        {
          "internalType": "uint256",
          "name": "",
          "type": "uint256"
        }
      ],
      "stateMutability": "view",
      "type": "function",
      "constant": true
    },
    {
      "inputs": [
        {
          "internalType": "address",
          "name": "owner",
          "type": "address"
        },
        {
          "internalType": "uint256",
          "name": "index",
          "type": "uint256"
        }
      ],
      "name": "tokenOfOwnerByIndex",
      "outputs": [
        {
          "internalType": "uint256",
          "name": "",
          "type": "uint256"
        }
      ],
      "stateMutability": "view",
      "type": "function",
      "constant": true
    },
    {
      "inputs": [
        {
          "internalType": "uint256",
          "name": "",
          "type": "uint256"
        }
      ],
      "name": "tokenURIs",
      "outputs": [
        {
          "internalType": "string",
          "name": "",
          "type": "string"
        }
      ],
      "stateMutability": "view",
      "type": "function",
      "constant": true
    },
    {
      "inputs": [],
      "name": "totalSupply",
      "outputs": [
        {
          "internalType": "uint256",
          "name": "",
          "type": "uint256"
        }
      ],
      "stateMutability": "view",
      "type": "function",
      "constant": true
    },
    {
      "inputs": [
        {
          "internalType": "address",
          "name": "from",
          "type": "address"
        },
        {
          "internalType": "address",
          "name": "to",
          "type": "address"
        },
        {
          "internalType": "uint256",
          "name": "tokenId",
          "type": "uint256"
        }
      ],
      "name": "transferFrom",
      "outputs": [],
      "stateMutability": "nonpayable",
      "type": "function"
    },
    {
      "inputs": [
        {
          "internalType": "bytes4",
          "name": "interfaceId",
          "type": "bytes4"
        }
      ],
      "name": "supportsInterface",
      "outputs": [
        {
          "internalType": "bool",
          "name": "",
          "type": "bool"
        }
      ],
      "stateMutability": "view",
      "type": "function",
      "constant": true
    },
    {
      "inputs": [
        {
          "internalType": "uint256",
          "name": "tokenId",
          "type": "uint256"
        }
      ],
      "name": "tokenURI",
      "outputs": [
        {
          "internalType": "string",
          "name": "",
          "type": "string"
        }
      ],
      "stateMutability": "view",
      "type": "function",
      "constant": true
    },
    {
      "inputs": [
        {
          "internalType": "string",
          "name": "_tokenURI",
          "type": "string"
        }
      ],
      "name": "safeMint",
      "outputs": [],
      "stateMutability": "nonpayable",
      "type": "function"
    }
  ],
  "bytecode": "0x60806040523480156200001157600080fd5b506040518060400160405280600e81526020017f6d544320436f6c6c656374696f6e0000000000000000000000000000000000008152506040518060400160405280600381526020017f6d54430000000000000000000000000000000000000000000000000000000000815250816000908051906020019062000096929190620000b8565b508060019080519060200190620000af929190620000b8565b505050620001cc565b828054620000c69062000197565b90600052602060002090601f016020900481019282620000ea576000855562000136565b82601f106200010557805160ff191683800117855562000136565b8280016001018555821562000136579182015b828111156200013557825182559160200191906001019062000118565b5b50905062000145919062000149565b5090565b5b80821115620001645760008160009055506001016200014a565b5090565b7f4e487b7100000000000000000000000000000000000000000000000000000000600052602260045260246000fd5b60006002820490506001821680620001b057607f821691505b602082108103620001c657620001c562000168565b5b50919050565b6130e880620001dc6000396000f3fe608060405234801561001057600080fd5b50600436106101165760003560e01c80636352211e116100a257806395d89b411161007157806395d89b4114610317578063a22cb46514610335578063b88d4fde14610351578063c87b56dd1461036d578063e985e9c51461039d57610116565b80636352211e1461026b578063695850fb1461029b5780636c8b703f146102b757806370a08231146102e757610116565b806318160ddd116100e957806318160ddd146101b557806323b872dd146101d35780632f745c59146101ef57806342842e0e1461021f5780634f6ccce71461023b57610116565b806301ffc9a71461011b57806306fdde031461014b578063081812fc14610169578063095ea7b314610199575b600080fd5b61013560048036038101906101309190611eaa565b6103cd565b6040516101429190611ef2565b60405180910390f35b6101536103df565b6040516101609190611fa6565b60405180910390f35b610183600480360381019061017e9190611ffe565b610471565b604051610190919061206c565b60405180910390f35b6101b360048036038101906101ae91906120b3565b6104f6565b005b6101bd61060d565b6040516101ca9190612102565b60405180910390f35b6101ed60048036038101906101e8919061211d565b61061a565b005b610209600480360381019061020491906120b3565b61067a565b6040516102169190612102565b60405180910390f35b6102396004803603810190610234919061211d565b61071f565b005b61025560048036038101906102509190611ffe565b61073f565b6040516102629190612102565b60405180910390f35b61028560048036038101906102809190611ffe565b6107b0565b604051610292919061206c565b60405180910390f35b6102b560048036038101906102b091906122a5565b610861565b005b6102d160048036038101906102cc9190611ffe565b610980565b6040516102de9190611fa6565b60405180910390f35b61030160048036038101906102fc91906122ee565b610a2c565b60405161030e9190612102565b60405180910390f35b61031f610ae3565b60405161032c9190611fa6565b60405180910390f35b61034f600480360381019061034a9190612347565b610b75565b005b61036b60048036038101906103669190612428565b610b8b565b005b61038760048036038101906103829190611ffe565b610bed565b6040516103949190611fa6565b60405180910390f35b6103b760048036038101906103b291906124ab565b610cda565b6040516103c49190611ef2565b60405180910390f35b60006103d882610d6e565b9050919050565b6060600080546103ee9061251a565b80601f016020809104026020016040519081016040528092919081815260200182805461041a9061251a565b80156104675780601f1061043c57610100808354040283529160200191610467565b820191906000526020600020905b81548152906001019060200180831161044a57829003601f168201915b5050505050905090565b600061047c82610de8565b6104bb576040517f08c379a00000000000000000000000000000000000000000000000000000000081526004016104b2906125bd565b60405180910390fd5b6004600083815260200190815260200160002060009054906101000a900473ffffffffffffffffffffffffffffffffffffffff169050919050565b6000610501826107b0565b90508073ffffffffffffffffffffffffffffffffffffffff168373ffffffffffffffffffffffffffffffffffffffff1603610571576040517f08c379a00000000000000000000000000000000000000000000000000000000081526004016105689061264f565b60405180910390fd5b8073ffffffffffffffffffffffffffffffffffffffff16610590610e54565b73ffffffffffffffffffffffffffffffffffffffff1614806105bf57506105be816105b9610e54565b610cda565b5b6105fe576040517f08c379a00000000000000000000000000000000000000000000000000000000081526004016105f5906126e1565b60405180910390fd5b6106088383610e5c565b505050565b6000600880549050905090565b61062b610625610e54565b82610f15565b61066a576040517f08c379a000000000000000000000000000000000000000000000000000000000815260040161066190612773565b60405180910390fd5b610675838383610ff3565b505050565b600061068583610a2c565b82106106c6576040517f08c379a00000000000000000000000000000000000000000000000000000000081526004016106bd90612805565b60405180910390fd5b600660008473ffffffffffffffffffffffffffffffffffffffff1673ffffffffffffffffffffffffffffffffffffffff168152602001908152602001600020600083815260200190815260200160002054905092915050565b61073a83838360405180602001604052806000815250610b8b565b505050565b600061074961060d565b821061078a576040517f08c379a000000000000000000000000000000000000000000000000000000000815260040161078190612897565b60405180910390fd5b6008828154811061079e5761079d6128b7565b5b90600052602060002001549050919050565b6000806002600084815260200190815260200160002060009054906101000a900473ffffffffffffffffffffffffffffffffffffffff169050600073ffffffffffffffffffffffffffffffffffffffff168173ffffffffffffffffffffffffffffffffffffffff1603610858576040517f08c379a000000000000000000000000000000000000000000000000000000000815260040161084f90612958565b60405180910390fd5b80915050919050565b600b8160405161087191906129b4565b908152602001604051809103902060009054906101000a900460ff16156108cd576040517f08c379a00000000000000000000000000000000000000000000000000000000081526004016108c490612a17565b60405180910390fd5b600a81908060018154018082558091505060019003906000526020600020016000909190919091509080519060200190610908929190611d9b565b506000600a80549050905081600c6000838152602001908152602001600020908051906020019061093a929190611d9b565b506109453382611259565b6001600b8360405161095791906129b4565b908152602001604051809103902060006101000a81548160ff0219169083151502179055505050565b600a818154811061099057600080fd5b9060005260206000200160009150905080546109ab9061251a565b80601f01602080910402602001604051908101604052809291908181526020018280546109d79061251a565b8015610a245780601f106109f957610100808354040283529160200191610a24565b820191906000526020600020905b815481529060010190602001808311610a0757829003601f168201915b505050505081565b60008073ffffffffffffffffffffffffffffffffffffffff168273ffffffffffffffffffffffffffffffffffffffff1603610a9c576040517f08c379a0000000000000000000000000000000000000000000000000000000008152600401610a9390612aa9565b60405180910390fd5b600360008373ffffffffffffffffffffffffffffffffffffffff1673ffffffffffffffffffffffffffffffffffffffff168152602001908152602001600020549050919050565b606060018054610af29061251a565b80601f0160208091040260200160405190810160405280929190818152602001828054610b1e9061251a565b8015610b6b5780601f10610b4057610100808354040283529160200191610b6b565b820191906000526020600020905b815481529060010190602001808311610b4e57829003601f168201915b5050505050905090565b610b87610b80610e54565b8383611277565b5050565b610b9c610b96610e54565b83610f15565b610bdb576040517f08c379a0000000000000000000000000000000000000000000000000000000008152600401610bd290612773565b60405180910390fd5b610be7848484846113e3565b50505050565b6060610bf882610de8565b610c37576040517f08c379a0000000000000000000000000000000000000000000000000000000008152600401610c2e90612b3b565b60405180910390fd5b600c60008381526020019081526020016000208054610c559061251a565b80601f0160208091040260200160405190810160405280929190818152602001828054610c819061251a565b8015610cce5780601f10610ca357610100808354040283529160200191610cce565b820191906000526020600020905b815481529060010190602001808311610cb157829003601f168201915b50505050509050919050565b6000600560008473ffffffffffffffffffffffffffffffffffffffff1673ffffffffffffffffffffffffffffffffffffffff16815260200190815260200160002060008373ffffffffffffffffffffffffffffffffffffffff1673ffffffffffffffffffffffffffffffffffffffff16815260200190815260200160002060009054906101000a900460ff16905092915050565b60007f780e9d63000000000000000000000000000000000000000000000000000000007bffffffffffffffffffffffffffffffffffffffffffffffffffffffff1916827bffffffffffffffffffffffffffffffffffffffffffffffffffffffff19161480610de15750610de08261143f565b5b9050919050565b60008073ffffffffffffffffffffffffffffffffffffffff166002600084815260200190815260200160002060009054906101000a900473ffffffffffffffffffffffffffffffffffffffff1673ffffffffffffffffffffffffffffffffffffffff1614159050919050565b600033905090565b816004600083815260200190815260200160002060006101000a81548173ffffffffffffffffffffffffffffffffffffffff021916908373ffffffffffffffffffffffffffffffffffffffff160217905550808273ffffffffffffffffffffffffffffffffffffffff16610ecf836107b0565b73ffffffffffffffffffffffffffffffffffffffff167f8c5be1e5ebec7d5bd14f71427d1e84f3dd0314c0f7b2291e5b200ac8c7c3b92560405160405180910390a45050565b6000610f2082610de8565b610f5f576040517f08c379a0000000000000000000000000000000000000000000000000000000008152600401610f5690612bcd565b60405180910390fd5b6000610f6a836107b0565b90508073ffffffffffffffffffffffffffffffffffffffff168473ffffffffffffffffffffffffffffffffffffffff161480610fac5750610fab8185610cda565b5b80610fea57508373ffffffffffffffffffffffffffffffffffffffff16610fd284610471565b73ffffffffffffffffffffffffffffffffffffffff16145b91505092915050565b8273ffffffffffffffffffffffffffffffffffffffff16611013826107b0565b73ffffffffffffffffffffffffffffffffffffffff1614611069576040517f08c379a000000000000000000000000000000000000000000000000000000000815260040161106090612c5f565b60405180910390fd5b600073ffffffffffffffffffffffffffffffffffffffff168273ffffffffffffffffffffffffffffffffffffffff16036110d8576040517f08c379a00000000000000000000000000000000000000000000000000000000081526004016110cf90612cf1565b60405180910390fd5b6110e3838383611521565b6110ee600082610e5c565b6001600360008573ffffffffffffffffffffffffffffffffffffffff1673ffffffffffffffffffffffffffffffffffffffff168152602001908152602001600020600082825461113e9190612d40565b925050819055506001600360008473ffffffffffffffffffffffffffffffffffffffff1673ffffffffffffffffffffffffffffffffffffffff16815260200190815260200160002060008282546111959190612d74565b92505081905550816002600083815260200190815260200160002060006101000a81548173ffffffffffffffffffffffffffffffffffffffff021916908373ffffffffffffffffffffffffffffffffffffffff160217905550808273ffffffffffffffffffffffffffffffffffffffff168473ffffffffffffffffffffffffffffffffffffffff167fddf252ad1be2c89b69c2b068fc378daa952ba7f163c4a11628f55a4df523b3ef60405160405180910390a4611254838383611531565b505050565b611273828260405180602001604052806000815250611536565b5050565b8173ffffffffffffffffffffffffffffffffffffffff168373ffffffffffffffffffffffffffffffffffffffff16036112e5576040517f08c379a00000000000000000000000000000000000000000000000000000000081526004016112dc90612e16565b60405180910390fd5b80600560008573ffffffffffffffffffffffffffffffffffffffff1673ffffffffffffffffffffffffffffffffffffffff16815260200190815260200160002060008473ffffffffffffffffffffffffffffffffffffffff1673ffffffffffffffffffffffffffffffffffffffff16815260200190815260200160002060006101000a81548160ff0219169083151502179055508173ffffffffffffffffffffffffffffffffffffffff168373ffffffffffffffffffffffffffffffffffffffff167f17307eab39ab6107e8899845ad3d59bd9653f200f220920489ca2b5937696c31836040516113d69190611ef2565b60405180910390a3505050565b6113ee848484610ff3565b6113fa84848484611591565b611439576040517f08c379a000000000000000000000000000000000000000000000000000000000815260040161143090612ea8565b60405180910390fd5b50505050565b60007f80ac58cd000000000000000000000000000000000000000000000000000000007bffffffffffffffffffffffffffffffffffffffffffffffffffffffff1916827bffffffffffffffffffffffffffffffffffffffffffffffffffffffff1916148061150a57507f5b5e139f000000000000000000000000000000000000000000000000000000007bffffffffffffffffffffffffffffffffffffffffffffffffffffffff1916827bffffffffffffffffffffffffffffffffffffffffffffffffffffffff1916145b8061151a575061151982611718565b5b9050919050565b61152c838383611782565b505050565b505050565b6115408383611894565b61154d6000848484611591565b61158c576040517f08c379a000000000000000000000000000000000000000000000000000000000815260040161158390612ea8565b60405180910390fd5b505050565b60006115b28473ffffffffffffffffffffffffffffffffffffffff16611a6d565b1561170b578373ffffffffffffffffffffffffffffffffffffffff1663150b7a026115db610e54565b8786866040518563ffffffff1660e01b81526004016115fd9493929190612f1d565b6020604051808303816000875af192505050801561163957506040513d601f19601f820116820180604052508101906116369190612f7e565b60015b6116bb573d8060008114611669576040519150601f19603f3d011682016040523d82523d6000602084013e61166e565b606091505b5060008151036116b3576040517f08c379a00000000000000000000000000000000000000000000000000000000081526004016116aa90612ea8565b60405180910390fd5b805181602001fd5b63150b7a0260e01b7bffffffffffffffffffffffffffffffffffffffffffffffffffffffff1916817bffffffffffffffffffffffffffffffffffffffffffffffffffffffff191614915050611710565b600190505b949350505050565b60007f01ffc9a7000000000000000000000000000000000000000000000000000000007bffffffffffffffffffffffffffffffffffffffffffffffffffffffff1916827bffffffffffffffffffffffffffffffffffffffffffffffffffffffff1916149050919050565b61178d838383611a90565b600073ffffffffffffffffffffffffffffffffffffffff168373ffffffffffffffffffffffffffffffffffffffff16036117cf576117ca81611a95565b61180e565b8173ffffffffffffffffffffffffffffffffffffffff168373ffffffffffffffffffffffffffffffffffffffff161461180d5761180c8382611ade565b5b5b600073ffffffffffffffffffffffffffffffffffffffff168273ffffffffffffffffffffffffffffffffffffffff16036118505761184b81611c4b565b61188f565b8273ffffffffffffffffffffffffffffffffffffffff168273ffffffffffffffffffffffffffffffffffffffff161461188e5761188d8282611d1c565b5b5b505050565b600073ffffffffffffffffffffffffffffffffffffffff168273ffffffffffffffffffffffffffffffffffffffff1603611903576040517f08c379a00000000000000000000000000000000000000000000000000000000081526004016118fa90612ff7565b60405180910390fd5b61190c81610de8565b1561194c576040517f08c379a000000000000000000000000000000000000000000000000000000000815260040161194390613063565b60405180910390fd5b61195860008383611521565b6001600360008473ffffffffffffffffffffffffffffffffffffffff1673ffffffffffffffffffffffffffffffffffffffff16815260200190815260200160002060008282546119a89190612d74565b92505081905550816002600083815260200190815260200160002060006101000a81548173ffffffffffffffffffffffffffffffffffffffff021916908373ffffffffffffffffffffffffffffffffffffffff160217905550808273ffffffffffffffffffffffffffffffffffffffff16600073ffffffffffffffffffffffffffffffffffffffff167fddf252ad1be2c89b69c2b068fc378daa952ba7f163c4a11628f55a4df523b3ef60405160405180910390a4611a6960008383611531565b5050565b6000808273ffffffffffffffffffffffffffffffffffffffff163b119050919050565b505050565b6008805490506009600083815260200190815260200160002081905550600881908060018154018082558091505060019003906000526020600020016000909190919091505550565b60006001611aeb84610a2c565b611af59190612d40565b9050600060076000848152602001908152602001600020549050818114611bda576000600660008673ffffffffffffffffffffffffffffffffffffffff1673ffffffffffffffffffffffffffffffffffffffff168152602001908152602001600020600084815260200190815260200160002054905080600660008773ffffffffffffffffffffffffffffffffffffffff1673ffffffffffffffffffffffffffffffffffffffff168152602001908152602001600020600084815260200190815260200160002081905550816007600083815260200190815260200160002081905550505b6007600084815260200190815260200160002060009055600660008573ffffffffffffffffffffffffffffffffffffffff1673ffffffffffffffffffffffffffffffffffffffff16815260200190815260200160002060008381526020019081526020016000206000905550505050565b60006001600880549050611c5f9190612d40565b9050600060096000848152602001908152602001600020549050600060088381548110611c8f57611c8e6128b7565b5b906000526020600020015490508060088381548110611cb157611cb06128b7565b5b906000526020600020018190555081600960008381526020019081526020016000208190555060096000858152602001908152602001600020600090556008805480611d0057611cff613083565b5b6001900381819060005260206000200160009055905550505050565b6000611d2783610a2c565b905081600660008573ffffffffffffffffffffffffffffffffffffffff1673ffffffffffffffffffffffffffffffffffffffff168152602001908152602001600020600083815260200190815260200160002081905550806007600084815260200190815260200160002081905550505050565b828054611da79061251a565b90600052602060002090601f016020900481019282611dc95760008555611e10565b82601f10611de257805160ff1916838001178555611e10565b82800160010185558215611e10579182015b82811115611e0f578251825591602001919060010190611df4565b5b509050611e1d9190611e21565b5090565b5b80821115611e3a576000816000905550600101611e22565b5090565b6000604051905090565b600080fd5b600080fd5b60007fffffffff0000000000000000000000000000000000000000000000000000000082169050919050565b611e8781611e52565b8114611e9257600080fd5b50565b600081359050611ea481611e7e565b92915050565b600060208284031215611ec057611ebf611e48565b5b6000611ece84828501611e95565b91505092915050565b60008115159050919050565b611eec81611ed7565b82525050565b6000602082019050611f076000830184611ee3565b92915050565b600081519050919050565b600082825260208201905092915050565b60005b83811015611f47578082015181840152602081019050611f2c565b83811115611f56576000848401525b50505050565b6000601f19601f8301169050919050565b6000611f7882611f0d565b611f828185611f18565b9350611f92818560208601611f29565b611f9b81611f5c565b840191505092915050565b60006020820190508181036000830152611fc08184611f6d565b905092915050565b6000819050919050565b611fdb81611fc8565b8114611fe657600080fd5b50565b600081359050611ff881611fd2565b92915050565b60006020828403121561201457612013611e48565b5b600061202284828501611fe9565b91505092915050565b600073ffffffffffffffffffffffffffffffffffffffff82169050919050565b60006120568261202b565b9050919050565b6120668161204b565b82525050565b6000602082019050612081600083018461205d565b92915050565b6120908161204b565b811461209b57600080fd5b50565b6000813590506120ad81612087565b92915050565b600080604083850312156120ca576120c9611e48565b5b60006120d88582860161209e565b92505060206120e985828601611fe9565b9150509250929050565b6120fc81611fc8565b82525050565b600060208201905061211760008301846120f3565b92915050565b60008060006060848603121561213657612135611e48565b5b60006121448682870161209e565b93505060206121558682870161209e565b925050604061216686828701611fe9565b9150509250925092565b600080fd5b600080fd5b7f4e487b7100000000000000000000000000000000000000000000000000000000600052604160045260246000fd5b6121b282611f5c565b810181811067ffffffffffffffff821117156121d1576121d061217a565b5b80604052505050565b60006121e4611e3e565b90506121f082826121a9565b919050565b600067ffffffffffffffff8211156122105761220f61217a565b5b61221982611f5c565b9050602081019050919050565b82818337600083830152505050565b6000612248612243846121f5565b6121da565b90508281526020810184848401111561226457612263612175565b5b61226f848285612226565b509392505050565b600082601f83011261228c5761228b612170565b5b813561229c848260208601612235565b91505092915050565b6000602082840312156122bb576122ba611e48565b5b600082013567ffffffffffffffff8111156122d9576122d8611e4d565b5b6122e584828501612277565b91505092915050565b60006020828403121561230457612303611e48565b5b60006123128482850161209e565b91505092915050565b61232481611ed7565b811461232f57600080fd5b50565b6000813590506123418161231b565b92915050565b6000806040838503121561235e5761235d611e48565b5b600061236c8582860161209e565b925050602061237d85828601612332565b9150509250929050565b600067ffffffffffffffff8211156123a2576123a161217a565b5b6123ab82611f5c565b9050602081019050919050565b60006123cb6123c684612387565b6121da565b9050828152602081018484840111156123e7576123e6612175565b5b6123f2848285612226565b509392505050565b600082601f83011261240f5761240e612170565b5b813561241f8482602086016123b8565b91505092915050565b6000806000806080858703121561244257612441611e48565b5b60006124508782880161209e565b94505060206124618782880161209e565b935050604061247287828801611fe9565b925050606085013567ffffffffffffffff81111561249357612492611e4d565b5b61249f878288016123fa565b91505092959194509250565b600080604083850312156124c2576124c1611e48565b5b60006124d08582860161209e565b92505060206124e18582860161209e565b9150509250929050565b7f4e487b7100000000000000000000000000000000000000000000000000000000600052602260045260246000fd5b6000600282049050600182168061253257607f821691505b602082108103612545576125446124eb565b5b50919050565b7f4552433732313a20617070726f76656420717565727920666f72206e6f6e657860008201527f697374656e7420746f6b656e0000000000000000000000000000000000000000602082015250565b60006125a7602c83611f18565b91506125b28261254b565b604082019050919050565b600060208201905081810360008301526125d68161259a565b9050919050565b7f4552433732313a20617070726f76616c20746f2063757272656e74206f776e6560008201527f7200000000000000000000000000000000000000000000000000000000000000602082015250565b6000612639602183611f18565b9150612644826125dd565b604082019050919050565b600060208201905081810360008301526126688161262c565b9050919050565b7f4552433732313a20617070726f76652063616c6c6572206973206e6f74206f7760008201527f6e6572206e6f7220617070726f76656420666f7220616c6c0000000000000000602082015250565b60006126cb603883611f18565b91506126d68261266f565b604082019050919050565b600060208201905081810360008301526126fa816126be565b9050919050565b7f4552433732313a207472616e736665722063616c6c6572206973206e6f74206f60008201527f776e6572206e6f7220617070726f766564000000000000000000000000000000602082015250565b600061275d603183611f18565b915061276882612701565b604082019050919050565b6000602082019050818103600083015261278c81612750565b9050919050565b7f455243373231456e756d657261626c653a206f776e657220696e646578206f7560008201527f74206f6620626f756e6473000000000000000000000000000000000000000000602082015250565b60006127ef602b83611f18565b91506127fa82612793565b604082019050919050565b6000602082019050818103600083015261281e816127e2565b9050919050565b7f455243373231456e756d657261626c653a20676c6f62616c20696e646578206f60008201527f7574206f6620626f756e64730000000000000000000000000000000000000000602082015250565b6000612881602c83611f18565b915061288c82612825565b604082019050919050565b600060208201905081810360008301526128b081612874565b9050919050565b7f4e487b7100000000000000000000000000000000000000000000000000000000600052603260045260246000fd5b7f4552433732313a206f776e657220717565727920666f72206e6f6e657869737460008201527f656e7420746f6b656e0000000000000000000000000000000000000000000000602082015250565b6000612942602983611f18565b915061294d826128e6565b604082019050919050565b6000602082019050818103600083015261297181612935565b9050919050565b600081905092915050565b600061298e82611f0d565b6129988185612978565b93506129a8818560208601611f29565b80840191505092915050565b60006129c08284612983565b915081905092915050565b7f54686520746f6b656e205552492073686f756c6420626520756e697175650000600082015250565b6000612a01601e83611f18565b9150612a0c826129cb565b602082019050919050565b60006020820190508181036000830152612a30816129f4565b9050919050565b7f4552433732313a2062616c616e636520717565727920666f7220746865207a6560008201527f726f206164647265737300000000000000000000000000000000000000000000602082015250565b6000612a93602a83611f18565b9150612a9e82612a37565b604082019050919050565b60006020820190508181036000830152612ac281612a86565b9050919050565b7f4552433732314d657461646174613a2055524920717565727920666f72206e6f60008201527f6e6578697374656e7420746f6b656e0000000000000000000000000000000000602082015250565b6000612b25602f83611f18565b9150612b3082612ac9565b604082019050919050565b60006020820190508181036000830152612b5481612b18565b9050919050565b7f4552433732313a206f70657261746f7220717565727920666f72206e6f6e657860008201527f697374656e7420746f6b656e0000000000000000000000000000000000000000602082015250565b6000612bb7602c83611f18565b9150612bc282612b5b565b604082019050919050565b60006020820190508181036000830152612be681612baa565b9050919050565b7f4552433732313a207472616e736665722066726f6d20696e636f72726563742060008201527f6f776e6572000000000000000000000000000000000000000000000000000000602082015250565b6000612c49602583611f18565b9150612c5482612bed565b604082019050919050565b60006020820190508181036000830152612c7881612c3c565b9050919050565b7f4552433732313a207472616e7366657220746f20746865207a65726f2061646460008201527f7265737300000000000000000000000000000000000000000000000000000000602082015250565b6000612cdb602483611f18565b9150612ce682612c7f565b604082019050919050565b60006020820190508181036000830152612d0a81612cce565b9050919050565b7f4e487b7100000000000000000000000000000000000000000000000000000000600052601160045260246000fd5b6000612d4b82611fc8565b9150612d5683611fc8565b925082821015612d6957612d68612d11565b5b828203905092915050565b6000612d7f82611fc8565b9150612d8a83611fc8565b9250827fffffffffffffffffffffffffffffffffffffffffffffffffffffffffffffffff03821115612dbf57612dbe612d11565b5b828201905092915050565b7f4552433732313a20617070726f766520746f2063616c6c657200000000000000600082015250565b6000612e00601983611f18565b9150612e0b82612dca565b602082019050919050565b60006020820190508181036000830152612e2f81612df3565b9050919050565b7f4552433732313a207472616e7366657220746f206e6f6e20455243373231526560008201527f63656976657220696d706c656d656e7465720000000000000000000000000000602082015250565b6000612e92603283611f18565b9150612e9d82612e36565b604082019050919050565b60006020820190508181036000830152612ec181612e85565b9050919050565b600081519050919050565b600082825260208201905092915050565b6000612eef82612ec8565b612ef98185612ed3565b9350612f09818560208601611f29565b612f1281611f5c565b840191505092915050565b6000608082019050612f32600083018761205d565b612f3f602083018661205d565b612f4c60408301856120f3565b8181036060830152612f5e8184612ee4565b905095945050505050565b600081519050612f7881611e7e565b92915050565b600060208284031215612f9457612f93611e48565b5b6000612fa284828501612f69565b91505092915050565b7f4552433732313a206d696e7420746f20746865207a65726f2061646472657373600082015250565b6000612fe1602083611f18565b9150612fec82612fab565b602082019050919050565b6000602082019050818103600083015261301081612fd4565b9050919050565b7f4552433732313a20746f6b656e20616c7265616479206d696e74656400000000600082015250565b600061304d601c83611f18565b915061305882613017565b602082019050919050565b6000602082019050818103600083015261307c81613040565b9050919050565b7f4e487b7100000000000000000000000000000000000000000000000000000000600052603160045260246000fdfea2646970667358221220a5dbb1222f45ba751af1ede4030027b55dbc21ec0de4d0b220de90c2e62e15b264736f6c634300080d0033",
  "immutableReferences": {},
  "source": "// SPDX-License-Identifier: MIT\npragma solidity ^0.8.0;\n\nimport \"@openzeppelin/contracts/token/ERC721/ERC721.sol\";\nimport \"@openzeppelin/contracts/token/ERC721/extensions/ERC721Enumerable.sol\";\n\ncontract NFTCollection is ERC721, ERC721Enumerable {\n  string[] public tokenURIs;\n  mapping(string => bool) _tokenURIExists;\n  mapping(uint => string) _tokenIdToTokenURI;\n\n  constructor() \n    ERC721(\"mTC Collection\", \"mTC\") \n  {\n  }\n\n  function _beforeTokenTransfer(address from, address to, uint256 tokenId) internal override(ERC721, ERC721Enumerable) {\n    super._beforeTokenTransfer(from, to, tokenId);\n  }\n\n  function supportsInterface(bytes4 interfaceId) public view override(ERC721, ERC721Enumerable) returns (bool) {\n    return super.supportsInterface(interfaceId);\n  }\n\n  function tokenURI(uint256 tokenId) public override view returns (string memory) {\n    require(_exists(tokenId), 'ERC721Metadata: URI query for nonexistent token');\n    return _tokenIdToTokenURI[tokenId];\n  }\n\n  function safeMint(string memory _tokenURI) public {\n    require(!_tokenURIExists[_tokenURI], 'The token URI should be unique');\n    tokenURIs.push(_tokenURI);    \n    uint _id = tokenURIs.length;\n    _tokenIdToTokenURI[_id] = _tokenURI;\n    _safeMint(msg.sender, _id);\n    _tokenURIExists[_tokenURI] = true;\n  }\n}",
  "sourcePath": "/Users/admin/IdeaProjects/summit/nft-application/src/contracts/NFTCollection.sol",
  "compiler": {
    "name": "solc",
    "version": "0.8.13+commit.abaa5c0e.Emscripten.clang"
  },
  "schemaVersion": "3.4.7",
  "updatedAt": "2022-04-29T13:06:32.103Z",
  "networkType": "ethereum",
  "devdoc": {
    "kind": "dev",
    "methods": {
      "approve(address,uint256)": {
        "details": "See {IERC721-approve}."
      },
      "balanceOf(address)": {
        "details": "See {IERC721-balanceOf}."
      },
      "getApproved(uint256)": {
        "details": "See {IERC721-getApproved}."
      },
      "isApprovedForAll(address,address)": {
        "details": "See {IERC721-isApprovedForAll}."
      },
      "name()": {
        "details": "See {IERC721Metadata-name}."
      },
      "ownerOf(uint256)": {
        "details": "See {IERC721-ownerOf}."
      },
      "safeTransferFrom(address,address,uint256)": {
        "details": "See {IERC721-safeTransferFrom}."
      },
      "safeTransferFrom(address,address,uint256,bytes)": {
        "details": "See {IERC721-safeTransferFrom}."
      },
      "setApprovalForAll(address,bool)": {
        "details": "See {IERC721-setApprovalForAll}."
      },
      "symbol()": {
        "details": "See {IERC721Metadata-symbol}."
      },
      "tokenByIndex(uint256)": {
        "details": "See {IERC721Enumerable-tokenByIndex}."
      },
      "tokenOfOwnerByIndex(address,uint256)": {
        "details": "See {IERC721Enumerable-tokenOfOwnerByIndex}."
      },
      "tokenURI(uint256)": {
        "details": "See {IERC721Metadata-tokenURI}."
      },
      "totalSupply()": {
        "details": "See {IERC721Enumerable-totalSupply}."
      },
      "transferFrom(address,address,uint256)": {
        "details": "See {IERC721-transferFrom}."
      }
    },
    "version": 1
  },
  "userdoc": {
    "kind": "user",
    "methods": {},
    "version": 1
  }
}